{
  "contractName": "Voting",
  "abi": [
    {
      "constant": true,
      "inputs": [
        {
          "name": "",
          "type": "bytes32"
        }
      ],
      "name": "votes",
      "outputs": [
        {
          "name": "",
          "type": "uint256"
        }
      ],
      "payable": false,
      "stateMutability": "view",
      "type": "function"
    },
    {
      "constant": true,
      "inputs": [
        {
          "name": "",
          "type": "uint256"
        }
      ],
      "name": "candidates",
      "outputs": [
        {
          "name": "",
          "type": "bytes32"
        }
      ],
      "payable": false,
      "stateMutability": "view",
      "type": "function"
    },
    {
      "constant": true,
      "inputs": [],
      "name": "totalVotesCast",
      "outputs": [
        {
          "name": "",
          "type": "uint256"
        }
      ],
      "payable": false,
      "stateMutability": "view",
      "type": "function"
    },
    {
      "inputs": [
        {
          "name": "_candidates",
          "type": "bytes32[]"
        }
      ],
      "payable": false,
      "stateMutability": "nonpayable",
      "type": "constructor"
    },
    {
      "constant": false,
      "inputs": [
        {
          "name": "candidate",
          "type": "bytes32"
        }
      ],
      "name": "vote",
      "outputs": [],
      "payable": false,
      "stateMutability": "nonpayable",
      "type": "function"
    },
    {
      "constant": true,
      "inputs": [
        {
          "name": "candidate",
          "type": "bytes32"
        }
      ],
      "name": "totalVotesFor",
      "outputs": [
        {
          "name": "",
          "type": "uint256"
        }
      ],
      "payable": false,
      "stateMutability": "view",
      "type": "function"
    },
    {
      "constant": true,
      "inputs": [
        {
          "name": "candidate",
          "type": "bytes32"
        }
      ],
      "name": "validCandidate",
      "outputs": [
        {
          "name": "",
          "type": "bool"
        }
      ],
      "payable": false,
      "stateMutability": "view",
      "type": "function"
    }
  ],
  "bytecode": "0x608060405234801561001057600080fd5b506040516104723803806104728339810180604052602081101561003357600080fd5b81019080805164010000000081111561004b57600080fd5b8201602081018481111561005e57600080fd5b815185602082028301116401000000008211171561007b57600080fd5b50508051909350610095925060019150602084019061009c565b5050610104565b8280548282559060005260206000209081019282156100d7579160200282015b828111156100d75782518255916020019190600101906100bc565b506100e39291506100e7565b5090565b61010191905b808211156100e357600081556001016100ed565b90565b61035f806101136000396000f3fe6080604052600436106100775763ffffffff7c01000000000000000000000000000000000000000000000000000000006000350416632b38cd96811461007c5780632f265cf7146100b85780633477ee2e146100e2578063392e66781461010c5780637de418d51461014a578063a69beaba1461015f575b600080fd5b34801561008857600080fd5b506100a66004803603602081101561009f57600080fd5b503561018b565b60408051918252519081900360200190f35b3480156100c457600080fd5b506100a6600480360360208110156100db57600080fd5b503561019d565b3480156100ee57600080fd5b506100a66004803603602081101561010557600080fd5b503561022b565b34801561011857600080fd5b506101366004803603602081101561012f57600080fd5b503561024a565b604080519115158252519081900360200190f35b34801561015657600080fd5b506100a6610294565b34801561016b57600080fd5b506101896004803603602081101561018257600080fd5b503561029a565b005b60006020819052908152604090205481565b60006101a88261024a565b151561021557604080517f08c379a000000000000000000000000000000000000000000000000000000000815260206004820152601160248201527f496e76616c69642063616e646964617465000000000000000000000000000000604482015290519081900360640190fd5b506000818152602081905260409020545b919050565b600180548290811061023957fe5b600091825260209091200154905081565b6000805b60015481101561028b578260018281548110151561026857fe5b90600052602060002001541415610283576001915050610226565b60010161024e565b50600092915050565b60025481565b6102a38161024a565b151561031057604080517f08c379a000000000000000000000000000000000000000000000000000000000815260206004820152601160248201527f496e76616c69642063616e646964617465000000000000000000000000000000604482015290519081900360640190fd5b60009081526020819052604090208054600190810190915560028054909101905556fea165627a7a72305820bdbac0f5ff65d2294585474e8b598a6576ac02e3e2a8cd8f89ca8d34704e610f0029",
  "source": "pragma solidity >=0.5.0;\n\ncontract Voting {\n    mapping (bytes32 => uint256) public votes;\n    bytes32[] public  candidates;\n    uint256 public totalVotesCast;\n\n    constructor(bytes32[] memory _candidates) public {\n        candidates = _candidates;\n    }\n\n    function vote(bytes32 candidate) public {\n        require(validCandidate(candidate), \"Invalid candidate\");\n        votes[candidate]++;\n        totalVotesCast++;\n    }\n\n    function totalVotesFor(bytes32 candidate) public view returns (uint256) {\n        require(validCandidate(candidate), \"Invalid candidate\");\n\n        return votes[candidate];\n    }\n\n    function validCandidate(bytes32 candidate) public view returns (bool) {\n        for (uint256 i = 0; i < candidates.length; i++) {\n            if (candidates[i] == candidate) {\n                return true;\n            }\n        }\n        return false;\n    }\n}\n",
  "sourcePath": "/home/icky/Desktop/d-voting/contracts/voting.sol",
  "compiler": {
    "name": "solc",
    "version": "0.5.0+commit.1d4f565a.Emscripten.clang"
  },
  "schemaVersion": "3.0.1",
  "updatedAt": "2023-05-02T05:35:50.269Z",
  "devdoc": {
    "methods": {}
  },
  "userdoc": {
    "methods": {}
  }
}